:020000040800F2
:1000000000000220B9020008C1020008C502000871
:10001000390300083D0300088503000800000000C4
:100020000000000000000000000000004142000845
:10003000D103000800000000E1420008515500080B
:10004000693E0008693E0008693E0008693E0008F4
:10005000693E0008693E0008693E0008693E0008E4
:10006000693E0008693E0008693E0008693E0008D4
:10007000693E0008693E0008693E0008693E0008C4
:1000800059550008693E0008693E0008693E0008AD
:10009000693E0008693E0008693E0008693E0008A4
:1000A000693E0008693E0008693E0008693E000894
:1000B000693E000869550008693E00087955000846
:1000C00089550008693E0008693E0008693E00083D
:1000D000693E0008693E000899550008A9550008C6
:1000E000693E0008693E0008693E0008693E000854
:1000F000693E0008693E0008693E0008693E000844
:10010000693E0008693E0008693E0008693E000833
:10011000693E0008693E0008693E0008693E000823
:10012000693E0008693E0008693E0008693E000813
:10013000693E0008693E0008693E0008693E000803
:10014000693E0008693E0008693E0008693E0008F3
:10015000693E0008693E0008693E0008693E0008E3
:10016000693E0008693E0008693E0008693E0008D3
:10017000693E0008693E0008693E00080000000072
:10018000693E0008693E000800B583B003F062FDD7
:10019000384B394A1360394A136039490CE00A6810
:1001A0004B6801F10C04886803E01168196004339E
:1001B00004329842F9D82146324B9942EFD32E4B64
:1001C0001A68314B9A4204D12C4B1A682F4B9A4231
:1001D00000D0FEE7274B2E4A13602E4A13602E4BA9
:1001E0000AE0194651F8082B5B6802E00020106015
:1001F00004329A42FAD30B46284A9342F1D3244B55
:100200001B6813B9234B1B6803B1FEE704F0C4FC61
:10021000694601A803F054FC214C224B1C1BA4107E
:10022000002504E01E4B53F8253098470135AC42B9
:10023000F8DC1D4C1D4B1C1BA410002504E01A4BC0
:1002400053F8253098470135AC42F8DC0099019805
:1002500004F062FF0546164C164B1C1BA41004E06C
:10026000013C134B53F824309847002CF8DC284607
:1002700003F0C2FBBABADECA00000020B8090020B1
:10028000E8030008000400087856341232547698C7
:10029000BC090020DC4B002000040008100400080A
:1002A00010040008100400081004000810040008DE
:1002B000100400081004000808B5FFF765FF00BF30
:1002C00000BEFEE71EF0040F0CBFEFF30880EFF353
:1002D00009807146414A10472DE9F04182B0044639
:1002E0008846134B5E6B9F6B9D6A1B6B13F0020F6E
:1002F0000DD00F4BDB6A002B09DA4BF6AB6103F034
:1003000033FD20B14FF00042094BDA620CE009489E
:1003100003F04CFCCDF800803B463246294620468F
:1003200003F0AAFC00BEFEE702B0BDE8F08100BF0A
:1003300000ED00E0D8A7000800BEFEE71EF0040FA5
:100340000CBFEFF30880EFF309807146244A104791
:100350002DE9F04182B004468846084B5E6B9F6BE6
:100360009D6A074803F022FCCDF800803B463246E8
:100370002946204603F080FC00BEFEE700ED00E0C9
:10038000E8A700081EF0040F0CBFEFF30880EFF39E
:1003900009807146134A10472DE9F04182B00446A6
:1003A0008846084B5E6B9F6B9D6A074803F0FEFB17
:1003B000CDF800803B4632462946204603F05CFCDF
:1003C00000BEFEE700ED00E0F4A7000800BEFEE777
:1003D00000BEFEE700BEFEE770470000D90200083D
:0803E000510300089903000815
:1003E800F4AA000800000020BC090020F4AA0008B4
:1003F8000000001000000010BC090020E04B0020A5
:080408000000001000000010CC
:1004400008B50B4B1A6842F400721A601A6842F43D
:1004500080621A601A6842F480721A60032000F009
:10046000C1FB002005F036F804F094FE002008BD22
:10047000003C0240024A136801331360704700BF1A
:10048000EC480020014B1868704700BFEC48002082
:1004900010B50446504B5A6822F440325A605968ED
:1004A00042680A435A600268536823F480735360B9
:1004B00002685368016943EA012353600268536884
:1004C00023F0407353600268516883680B435360A4
:1004D0000268936823F40063936002689168C368BC
:1004E0000B439360826A3D4B9A4214D00268936832
:1004F00023F07063936002689168836A0B43936092
:100500000268936823F04053936002689168C36A5D
:100510000B43936009E00268936823F07063936073
:100520000268936823F0405393602268936823F035
:100530000203936022689368A16943EA41039360D0
:10054000236A03B3636A013B072B04D940F2296194
:10055000234804F01DFE2268536843F4006353608F
:100560002268536823F460435360636A013B4FF48D
:10057000604292FAA2F2B2FA82F2934021684A688B
:1005800013434B6004E02268536823F40063536014
:100590002268D36A23F47003D3622168CA6AE369CC
:1005A000013B42EA0353CB622268936823F4007351
:1005B000936022689368216B43EA41239360226829
:1005C000936823F48063936022689368616943EAC7
:1005D0008123936010BD00BF002301400100000F84
:1005E000E4A40008002800F0DE8010B5044603688B
:1005F0006E4A93420CD002F58072934208D002F505
:100600008072934204D040F20D11694804F0C0FD9D
:1006100063686BB1B3F5803F0AD0B3F5003F07D0F4
:10062000B3F5403F04D04FF48771614804F0B0FD4A
:10063000A3686BB1B3F1807F0AD0B3F1007F07D01C
:10064000B3F1407F04D040F20F11594804F0A0FDEF
:100650002369012B04D94FF48871554804F098FDA3
:10066000A369012B04D940F21111514804F090FD07
:10067000A36AA3B3B3F1807F31D0B3F1007F2ED052
:10068000B3F1407F2BD0B3F1806F28D0B3F1A06FCE
:1006900025D0B3F1C06F22D0B3F1E06F1FD0B3F11A
:1006A000006F1CD0B3F1106F19D0B3F1206F16D0CA
:1006B000B3F1306F13D0B3F1406F10D0B3F1506F7E
:1006C0000DD0B3F1606F0AD0B3F1706F07D0394A23
:1006D000934204D04FF48971354804F059FDE36822
:1006E0003BB1B3F5006F04D040F21311304804F071
:1006F0004FFDE369013B0F2B04D94FF48A712C485D
:1007000004F046FD236B012B04D940F21511284853
:1007100004F03EFD6369022B04D94FF48B71244829
:1007200004F036FD236A012B04D940F2171120484A
:1007300004F02EFDA26A1F4B9A420FD0E36A6BB100
:10074000B3F1805F0AD0B3F1005F07D0B3F1405F2F
:1007500004D040F21B11164804F01AFD236C2BB98B
:10076000636484F83C30204604F044FD236C13F0AD
:10077000100F13D1236C23F4885323F0020343F0AA
:10078000020323642046FFF783FE00206064236C8D
:1007900023F0030343F00103236400E0012000235E
:1007A00084F83C3010BD0120704700BF002001409C
:1007B000E4A400080100000F30B583B005460C46E4
:1007C000002301930B68122B04D940F2175166489D
:1007D00004F0DEFC6368013B0F2B04D94FF4A361E6
:1007E000614804F0D5FCA368072B04D940F21951E5
:1007F0005D4804F0CDFC95F83C30012B00F0B18051
:10080000012385F83C302368092B17D92868C26872
:100810009BB203EB43031E3B072101FA03F322EAD9
:100820000303C3602968C868A268238803EB4303F5
:100830001E3B02FA03F30343CB6013E0286802690E
:100840009BB203EB4303072101FA03F322EA0303FC
:10085000036129680869A368228802EB4202934079
:1008600003430B616368062B16D82868426B03EBC1
:100870008303053B1F2101FA03F322EA03034363C9
:100880002968486B636803EB8303053B228802FAFF
:1008900003F303434B632EE00C2B16D82868026B3E
:1008A00003EB8303233B1F2101FA03F322EA030333
:1008B00003632968086B636803EB8303233B228887
:1008C00002FA03F303430B6315E02868C26A03EBE3
:1008D0008303413B1F2101FA03F322EA0303C362AE
:1008E0002968C86A636803EB8303413B228802FAE4
:1008F00003F30343CB622A681C4B9A4207D1236857
:10090000122B04D11A4A536843F4800353602A68B7
:10091000164B9A4221D12368103B012B1DD8144A53
:10092000536843F4000353602368102B15D1114B17
:100930001B6802F1467202F52E3202F28332A2FBEC
:1009400003239B0C03EB83035A00019202E0019BFB
:10095000013B0193019B002BF9D1002085F83C005D
:1009600000E0022003B030BDE4A4000800200140F4
:100970000023014008000020002800F02D8138B538
:1009800004460368954A934207D002F58062934279
:1009900003D0BB21924804F0FBFBA369012B03D9D0
:1009A000BC218F4804F0F4FBE369012B03D9BD217E
:1009B0008B4804F0EDFB236A012B03D9BE21884844
:1009C00004F0E6FB636A012B03D9BF21844804F0DD
:1009D000DFFBA36A012B03D9C021814804F0D8FBB7
:1009E000E36A012B03D9C1217D4804F0D1FBA36840
:1009F00063B1B3F1804F09D0B3F1004F06D0B3F12A
:100A0000404F03D0C221764804F0C2FBE36863B1D3
:100A1000B3F1807F09D0B3F1007F06D0B3F1407FFE
:100A200003D0C3216E4804F0B3FB2369B3F5702FE4
:100A300003D9C4216A4804F0ABFB6369B3F5E00F46
:100A400003D9C521664804F0A3FB6368013BB3F5F5
:100A5000806F03D3C621624804F09AFB94F83830C3
:100A600013F0FF0F05D1002384F83930204604F03D
:100A70001DFC022384F838302268136823F0020337
:100A800013602268136843F001031360FFF7FAFC58
:100A900005460BE0FFF7F6FC401B0A2806D90320A9
:100AA00084F83800002384F8393038BD23685A6848
:100AB00012F0010FEED05A6812F0010F7DD0A2693A
:100AC000012A04D11A6842F080021A6003E01A6811
:100AD00022F080021A60E369012B05D122681368B5
:100AE00043F04003136004E02268136823F04003DE
:100AF0001360236A012B05D12268136843F0200399
:100B0000136004E02268136823F020031360636A13
:100B1000012B05D12268136843F01003136004E031
:100B20002268136823F010031360A36A012B05D118
:100B30002268136843F00803136004E02268136816
:100B400023F008031360E36A012B05D122681368C0
:100B500043F00403136004E02268136823F00403E5
:100B600013602168A268E3681A4323691A43636922
:100B70001A436368013B1343CB612268136823F077
:100B800001031360FFF77EFC05460BE0FFF77AFCDC
:100B9000401B0A2806D9032084F83800002384F873
:100BA000393038BD23685A6812F0010FEED15B6806
:100BB00013F0010F03D0002302E0002300E0012323
:100BC0002BB10020E063012384F8383038BD0423C2
:100BD00084F83830012038BD01207047006400409F
:100BE00010A5000810B50446C31E042B03D9A42188
:100BF000094804F0CDFA094AD36823F4E0631B04E2
:100C00001B0C240204F4E064234343F0BF6343F469
:100C10000033D36010BD00BF3CA5000800ED00E02C
:100C200070B504460E4615460F2A03D9BC211A4852
:100C300004F0AEFA0F2E03D9BD21174804F0A8FA2C
:100C4000164BDA68C2F30222C2F10701042928BF59
:100C50000421131D062B01D9033A00E000220123D1
:100C600003FA01F101393140914003FA02F2013AED
:100C70002A400A43002C06DA04F00F041201D2B213
:100C8000074B1A5570BD1201D2B204F1604404F54D
:100C9000614484F8002370BD3CA5000800ED00E02D
:100CA00014ED00E010B5041E03DAD021064804F06C
:100CB0006FFA620904F01F04012303FA04F4034BE2
:100CC00043F8224010BD00BF3CA5000800E100E051
:100CD0000138B0F1807F0AD2064B5860F021064AF5
:100CE00082F823100020986007221A6070470120C4
:100CF000704700BF10E000E000ED00E010B50446D2
:100D0000042805D020B140F2DB11084804F040FA75
:100D1000042C05D1064A136843F00403136010BD88
:100D2000034A136823F00403136010BD3CA50008B8
:100D300010E000E00268D3B2103B0B49A1FB0313A3
:100D40001B090A49C95CC165032B06D922F47F72CD
:100D500022F003020432826504E022F47F7222F062
:100D600003028265806D7047ABAAAAAA6CA5000831
:100D7000836A826982B9012B08D00BB1022B2ED174
:100D8000C36A13F0807F2CD100207047C36AB3F18F
:100D9000C07F28D000207047B2F5005F13D1032B2D
:100DA00003D8DFE803F02204220A00207047C36A58
:100DB00013F0807F1BD100207047C36AB3F1C07F5E
:100DC00017D000207047022B15D9032B01D000202B
:100DD0007047C36A13F0807F0FD100207047002056
:100DE00070470120704701207047012070470120A3
:100DF000704701207047012070470120704700BFF5
:100E000070B50446FFF73EFB002C00F02B81054631
:100E10002368954A934231D0183293422ED018322B
:100E200093422BD01832934228D01832934225D0C7
:100E30001832934222D0183293421FD01832934274
:100E40001CD002F55672934218D01832934215D036
:100E50001832934212D0183293420FD01832934274
:100E60000CD01832934209D01832934206D018326F
:100E7000934203D0CA217D4804F08AF96368C3B164
:100E8000B3F1007F15D0B3F1806F12D0B3F1C06F12
:100E90000FD0B3F1006F0CD0B3F1206F09D0B3F1D4
:100EA000406F06D0B3F1606F03D0CB216F4804F0E0
:100EB0006FF9A3683BB1402B05D0802B03D0CC2128
:100EC0006A4804F065F9E368B3F5007F04D01BB10C
:100ED000CD21664804F05CF92369B3F5806F04D036
:100EE0001BB1CE21614804F053F963694BB1B3F5EE
:100EF000006F06D0B3F5805F03D0CF215B4804F0CC
:100F000047F9A3694BB1B3F5005F06D0B3F5804F45
:100F100003D0D021554804F03BF9E36943B1B3F560
:100F2000807F05D0202B03D0D121504804F030F928
:100F3000236A63B1B3F5803F09D0B3F5003F06D013
:100F4000B3F5403F03D0D221484804F021F9636A49
:100F50002BB1042B03D0D321444804F019F9636A60
:100F600023B3A36A032B03D9D821404804F010F916
:100F7000E36A63B1B3F5000F09D0B3F1807F06D007
:100F8000B3F1C07F03D0D921384804F001F9236BB5
:100F900063B1B3F5001F09D0B3F5800F06D0B3F5E8
:100FA000C00F03D0DA21314804F0F2F8002384F8AE
:100FB0003430022384F835302268136823F00103AB
:100FC00013600AE0FFF75EFA401B052805D92023CD
:100FD0006365032084F8350070BD23681A6812F039
:100FE000010FEFD11A68224810406168A2681143CE
:100FF000E26811432269114362691143A2691143F6
:10100000E2690A43216A114340EA0102616A042944
:1010100003D1E06A216B01430A431A6026687569AF
:1010200025F00705636A1D43042B0DD1A36A1D43F8
:10103000E36A4BB12046FFF79BFE28B1402363656E
:10104000012084F8350070BD75612046FFF772FEFF
:10105000E26D3F239340836000206065012384F8A4
:10106000353070BD012070BD1060024074A50008CD
:101070003F8010F090F83530DBB2022B03D0802394
:10108000436501207047052380F8353002681368F6
:1010900023F0010313600020704700BFF0B583B058
:1010A000044600230193714B1B68714DA5FB03356A
:1010B000AD0A876D3E68C26D082393401E4210D072
:1010C00003681A6812F0040F0BD01A6822F00402A9
:1010D0001A60C26D08239340BB60436D43F0010367
:1010E0004365E26D634B93401E4209D0226852690A
:1010F00012F0800F04D0BB60636D43F002036365A0
:10110000E26D5D4B93401E4209D02268126812F0D6
:10111000020F04D0BB60636D43F004036365E26DAE
:10112000102393401E4224D02268126812F0080F48
:101130001FD0BB6023681A6812F4802F0DD01B6883
:1011400013F4002F04D1236C9BB12046984710E084
:10115000A36C73B1204698470BE01A6812F4807FA5
:1011600003D11A6822F008021A60236C0BB12046E2
:101170009847E26D202393401E4252D022681268A5
:1011800012F0100F4DD0BB6094F83530DBB2052B58
:1011900022D12268136823F0160313602268536972
:1011A00023F080035361236C0BB9A36C23B1226835
:1011B000136823F008031360E26D3F239340BB6084
:1011C000002384F83430012384F83530236D002B5C
:1011D00049D02046984746E023681A6812F4802FC9
:1011E0000DD01B6813F4002F04D1636CCBB12046E3
:1011F000984716E0E36BA3B12046984711E01A68C0
:1012000012F4807F09D11A6822F010021A600023BC
:1012100084F83430012384F83530E36B0BB1204679
:101220009847636DFBB1636D13F0010F17D0052371
:1012300084F835302268136823F001031360019BA2
:10124000013301939D4204D323681B6813F0010FFF
:10125000F5D1002384F83430012384F83530E36C71
:101260000BB12046984703B0F0BD00BF0800002036
:10127000B5814E1B01008000040080002DE9F0477D
:1012800082B080460F46A34B984223D003F580637B
:1012900098421FD003F5806398421BD003F580630A
:1012A000984217D003F58063984213D003F580630A
:1012B00098420FD003F5806398420BD003F580630A
:1012C000984207D003F58063984203D0C521924825
:1012D00003F05EFF3B689AB212B11B0C1B041BB1FA
:1012E000C6218D4803F054FF7B68012B22D9112BB6
:1012F00020D0022B1ED0122B1CD0884A934219D02A
:1013000002F58012934215D002F58012934211D05B
:10131000A2F5F81293420DD002F58012934209D043
:1013200002F58012934205D0032B03D0C7217A48DF
:1013300003F02EFFBB68022B03D9C821764803F0C7
:1013400027FF002526E10124AC403E682640B44238
:1013500040F01F817B68022B01D0122B4AD13B69E0
:10136000C3B3092B36D0ABB3A3B39BB393B3012B59
:1013700030D02FD0022B2DD02CD02BD0032B29D026
:10138000042B27D026D025D0052B23D022D0092B03
:1013900020D0062B1ED0092B1CD0072B1AD019D019
:1013A00018D0082B16D015D014D0092B12D011D07C
:1013B0000A2B0FD00ED00B2B0CD00C2B0AD009D03F
:1013C0000D2B07D00C2B05D00F2B03D0D921524861
:1013D00003F0DEFEEA08083258F8220005F00703A1
:1013E00099000F238B4020EA03003B698B400343A5
:1013F00048F82230D8F800304FEA450A4FF0030988
:1014000009FA0AF96FEA090903EA09027B6803F09D
:10141000030303FA0AF31343C8F800307B685A1E2B
:10142000012A03D9112B01D0122B1BD1FB68032BEE
:1014300003D9EC21384803F0ABFED8F8083009EAAC
:101440000302FB6803FA0AF31343C8F80830D8F81C
:10145000043023EA04047B68C3F30013AB401C434D
:10146000C8F80440D8F80C3009EA0309BB6803FA4D
:101470000AF349EA0303C8F80C307B6813F0805F75
:1014800000F0878000230193254B5A6C42F4804280
:101490005A645B6C03F480430193019BA9088A1C86
:1014A000204B53F8220005F003039B000F229A40C3
:1014B00020EA0200174A90451DD002F5806290454F
:1014C0001BD002F58062904519D002F580629045EC
:1014D00017D002F58062904515D002F580629045E4
:1014E00013D002F58062904511D002F580629045DC
:1014F0001AD1072219E0002217E0012215E002228A
:1015000013E0032211E004220FE005220DE0062281
:101510000BE000BF00000240A0A500080000111071
:101520000038024000380140082202FA03F3034366
:1015300002311B4A42F821301A4B1A68F34302EA7F
:101540000301786810F4803F01D046EA0201154A91
:101550001160526803EA0201786810F4003F01D07C
:1015600046EA02010F4A5160926803EA0201786874
:1015700010F4801F01D046EA02010A4A9160D26845
:101580001340796811F4001F01D046EA0203054AAE
:10159000D36001350F2D7FF6D6AE02B0BDE8F087DF
:1015A00000380140003C014070B5064615460C4627
:1015B00021B940F2B111084803F0EAFD012D04D928
:1015C0004FF4D971044803F0E3FD0DB1B46170BD6F
:1015D0002404B46170BD00BFA0A5000838B504465E
:1015E0000D4621B94FF4E471034803F0D1FD616960
:1015F0006940616138BD00BFA0A5000890F83E3089
:10160000DBB2402B0ED1036D2BB90268436C03F0A3
:10161000FE03136132E00268436C43F00103DBB266
:1016200013612BE00369B3F5804F11D190F83D3081
:10163000DBB2212B05D10268436C03F0FE0313617A
:101640001CE00268436C43F00103DBB2136115E058
:10165000036D43B90268436CDB1103F0060343F0EA
:10166000F00313610AE0036D012B07D10268436C9C
:10167000DB1103F0060343F0F10313610020704710
:101680000268436CDBB213610020704710B48BB06A
:1016900090F83E30DAB2C16A046B90F83D30DBB2AC
:1016A000222B40F0CC80036D4BB9402A07D1009328
:1016B00003685A6900929B690093009BC7E0036D21
:1016C0009BB90369B3F5404F0FD100230193036821
:1016D0005A6901929A690192019A1A6842F48072D9
:1016E0001A60036D01330365B1E0438D9BB25BB9B2
:1016F000029303685A6902929A690292029A1A68DE
:1017000042F400721A6097E0438D9BB2012B54D1D2
:1017100011F5803F22D10268136823F480631360BF
:1017200003685A6812F4006F0CD01A6822F48062C1
:101730001A600023039303685A6903929B69039319
:10174000039B79E0002204925A6904929A690492F8
:10175000049A1A6842F400721A606DE004291AD0E3
:10176000082918D0122C16D0C36A022B05D00268A3
:10177000136823F48063136004E00268136843F481
:10178000806313600023059303685A6905929B697F
:101790000593059B50E00268136823F4806313608F
:1017A0000023069303685A6906929A690692069A7C
:1017B0001A6842F400721A603EE0438D9BB2022B1D
:1017C00024D1C36A022B0AD00268136823F4806311
:1017D00013600268136843F40063136004E0026856
:1017E000136843F48063136003685A6812F4006F4F
:1017F00003D05A6842F480525A600023079303686A
:101800005A6907929B690793079B15E00268136862
:1018100043F48063136003685A6812F4006F03D0C6
:101820005A6842F480525A600023089303685A6948
:1018300008929B690893089B0023036507E0002337
:10184000099303685A6909929B690993099B0020CF
:101850000BB05DF8044B7047438D9BB253B10268E7
:10186000436A591C41621B781361438D9BB2013B53
:101870009BB2438500207047438D9BB253B1436AAE
:101880005A1C4262026812691A70438D9BB2013B76
:101890009BB2438500207047002800F0E38038B5F4
:1018A00004460368704A93420CD002F5806293426A
:1018B00008D002F58062934204D04FF4B8716B48AF
:1018C00003F066FC6368013B694A934204D940F225
:1018D0007111664803F05CFCA3683BB1B3F5804F1F
:1018E00004D04FF4B971614803F052FCE36823F46B
:1018F0007F7323F0030323B140F273115B4803F0BD
:1019000047FC2369B3F5804F07D0B3F5404F04D0AF
:101910004FF4BA71554803F03BFC6369012B04D9BD
:1019200040F27511514803F033FCA36933F0FE0314
:1019300004D04FF4BB714D4803F02AFCE36933B186
:10194000402B04D040F27711484803F021FC236A71
:1019500033B1802B04D04FF4BC71444803F018FC21
:1019600094F83D3013F0FF0F05D1002384F83C308C
:10197000204603F0C3FC242384F83D30226813681A
:1019800023F00103136001F05BF93A4BA3FB002342
:101990009B0C2268536021686568374A954201D8DC
:1019A000013308E04FF4967202FB03F3334AA2FBC3
:1019B00003239B0901330B62216863682E4A93421B
:1019C00008D85B00B0FBF3F0C0F30B03032B2BD85C
:1019D000042029E0A5684DB903EB4302B0FBF2F205
:1019E000C2F30B02B2FA82F252090AE003EB83025D
:1019F00002EB8202B0FBF2F2C2F30B02B2FA82F205
:101A0000520982B935B903EB4303B0FBF3F040F45C
:101A1000004009E003EB830303EB8303B0FBF3F027
:101A200040F4404000E00120C8612268E169236A77
:101A30000B43136022682169E3680B4393602268BB
:101A40006169A3690B43D3602268136843F0010303
:101A5000136000202064202384F83D30206384F844
:101A60003E0038BD0120704700540040D0A500085A
:101A70007F1A060083DE1B43A0860100D34D62104F
:101A8000704700BF704700BF704700BF90F83D30FF
:101A9000DAB2438D9BB2F3B110B50168436A5C1CA6
:101AA00044621B780B61438D9BB2013B9BB2438523
:101AB000438D9BB26BB9292A0BD10268536823F47A
:101AC0008063536021230363282380F83D30FFF7B0
:101AD000DBFF002010BD0020704700BF704700BF33
:101AE00008B590F83D30DAB2438D9BB2DBB1436A62
:101AF000591C4162016809691970438D9BB2013B11
:101B00009BB24385438D9BB26BB92A2A0BD10268E5
:101B1000536823F48063536022230363282380F8EF
:101B20003D30FFF7DBFF002008BD00BF704700BF5E
:101B300008B503689A6912F0040F01D0002100E093
:101B400001219B6913F0800F01D1828900E0028B93
:101B5000FFF7ECFF002008BD704700BF08B590F804
:101B60003D30DBB2C26A042A01D0082A1BD1282BDF
:101B700019D11E4BC3620268536823F4E0635360BB
:101B800003686FF480625A610268136823F480630B
:101B9000136000230363202280F83D2080F83E304C
:101BA000FFF7DAFF20E0212B1AD1104BC36221236B
:101BB0000363202380F83D30002380F83E30026824
:101BC000536823F4E063536003686FF480625A61E2
:101BD0000268136823F480631360FFF755FF03E086
:101BE00003686FF480625A61002008BD0000FFFFA7
:101BF000704700BF10B590F83D30DBB290F83E2042
:101C0000D2B2C46A018D002938D1212B36D1042CDF
:101C100014D0082C12D014F5803F0FD002685368FE
:101C200023F4E063536011230363002380F83E3004
:101C3000202380F83D30FFF723FF7EE002685368E1
:101C400023F4E06353600268136843F40073136085
:101C500000230363202380F83D3090F83E30DBB250
:101C6000402B05D1002380F83E30FFF7C1FF64E030
:101C7000002380F83E30FFF703FF5EE0212B03D006
:101C8000402A5AD1222B58D1438D9BB22BB90268DE
:101C9000536823F4806353604FE090F83E30DBB22A
:101CA000402B3FD1036D9BB9C36C012B07D1026858
:101CB000836CDBB21361036D023303653DE00268A0
:101CC000836CC3F307231361036D0133036534E0B1
:101CD000036D012B07D10268836CDBB21361036DC6
:101CE0000133036529E0036D022B26D190F83D30C6
:101CF000DBB2222B05D10268136843F480731360B2
:101D00001BE090F83D30DBB2212B16D10268436A0C
:101D1000591C41621B781361438D9BB2013B9BB2FE
:101D200043850AE00268436A591C41621B781361CB
:101D3000438D9BB2013B9BB24385002010BD00BF89
:101D400008B5C26A90F83D30DBB2212B44D1438DF7
:101D50009BB25BB10268436A591C41621B781361F4
:101D6000438D9BB2013B9BB2438535E0042A14D0DE
:101D7000082A12D012F5803F0FD00268536823F46E
:101D8000E063536011230363002380F83E30202377
:101D900080F83D30FFF774FE1EE00268536823F4BC
:101DA000E06353600268136843F400731360002318
:101DB0000363202380F83D3090F83E30DBB2402BA7
:101DC00005D1002380F83E30FFF712FF04E0002326
:101DD00080F83E30FFF754FE002008BD704700BF7A
:101DE00008B590F83D30DBB2222B54D1438D9BB225
:101DF000032B0BD9436A5A1C4262026812691A709B
:101E0000438D9BB2013B9BB2438544E0023B012BD7
:101E10000FD80268136823F48063136002681368A4
:101E200043F4006313600268536823F480635360D3
:101E300031E00268136823F480631360C36A022BE5
:101E400004D10268136843F40063136002685368A6
:101E500023F4E0635360436A5A1C426202681269C9
:101E60001A70438D9BB2013B9BB24385202380F8BF
:101E70003D300023036390F83E30DBB2402B05D1A8
:101E8000002380F83E30FFF7A9FF04E0002380F82C
:101E90003E30FFF7F7FD002008BD00BF08B5C26A5D
:101EA000438D9BB2032B17D1042A04D0082A02D0F9
:101EB00012F5803F04D10268136823F48063136035
:101EC000436A5A1C4262026812691A70438D9BB2BF
:101ED000013B9BB2438559E0438D9BB2022B4AD113
:101EE000042A12D0082A10D012F5803F0DD00168C4
:101EF0000B6823F480630B60013A012A0AD8026858
:101F0000136843F48073136004E00268136843F4B9
:101F100000731360436A5A1C4262026812691A70A5
:101F2000438D9BB2013B9BB24385436A5A1C42627C
:101F3000026812691A70438D9BB2013B9BB24385C4
:101F40000268536823F440735360202380F83D30C7
:101F50000023036390F83E30DBB2402B05D1002311
:101F600080F83E30FFF73AFF10E0002380F83E3063
:101F7000FFF788FD0AE0436A5A1C42620268126950
:101F80001A70438D9BB2013B9BB24385002008BD74
:101F9000704700BF704700BF10B5044690F83D3051
:101FA000293B012B05D800230363282380F83D300B
:101FB00010E090F83D30DBB2602B07D003685B681F
:101FC00013F4006F02D1202380F83D3000232363F7
:101FD00084F83E302268136823F40063136023689A
:101FE0005A6812F4006F3AD05A6822F400625A60BC
:101FF000626B92F83530DBB2012B12D0374B136590
:10200000606BFFF737F8002851D02268136823F07F
:1020100001031360202384F83D30606B036D984703
:1020200045E0A36B2D4A1A65A06BFFF723F8002843
:102030003DD023685A6912F0400F04D0626A511CE7
:1020400061621B6913702268136823F00103136037
:10205000202384F83D30A06B036D984727E094F867
:102060003D20D2B2602A16D1202284F83D200022E1
:1020700022645A6912F0400F04D0626A511C6162F6
:102080001B6913702268136823F001031360204654
:10209000FFF780FF0BE05A6912F0400F04D0626A2C
:1020A000511C61621B6913702046FFF771FF94F8A1
:1020B0003D30DBB2282B0FD1236C13F0040F0BD073
:1020C000074BE36200232363202284F83D2084F839
:1020D0003E302046FFF740FD10BD00BF152400082C
:1020E0000000FFFF10B582B090F83D30DBB2016810
:1020F0004A6822F4E0624A60002201920268516953
:102100000191116841F001011160019A01680A68AA
:1021100022F480620A6001684A6812F4006F14D0E9
:1021200090F83D20D2B2222A04D090F83D20D2B2BD
:102130002A2A05D1826B1268526892B2428504E065
:10214000426B1268526892B24285428D92B202B3DB
:102150004A6912F0040F09D0426A541C44620969AA
:102160001170428D92B2013A92B242850268516971
:1021700011F0400F09D0416A4C1C446212690A7088
:10218000428D92B2013A92B24285026C42F0040250
:102190000264026C12B1FFF7FFFE1FE0282B03D090
:1021A0002A2B01D0292B0BD10E4BC36200230363D2
:1021B000202280F83D2080F83E30FFF7CDFC0DE076
:1021C000026B222A01D0222B08D100230363202294
:1021D00080F83D2080F83E30FFF780FC002002B000
:1021E00010BD00BF0000FFFFF8B5054603689F69FA
:1021F0005C695E6890F83E30DBB2102B01D0402B5A
:102200004FD114F0011F06D016F4007F03D02846EA
:10221000FFF7F4F912E0454B234033B116F4007F89
:1022200003D02846FFF72CFA08E0414B23402BB19E
:1022300016F4007F02D02846FFF728FA3D4B3B40BA
:10224000BBB13D4B23404BB116F4806F06D03B4BE6
:1022500023401BB92846FFF7CDFCF8BD374B234080
:10226000002B61D016F4007F5ED02846FFF768FD92
:10227000F8BD334B23404BB116F4806F06D02F4B83
:1022800023401BB92846FFF7ABFDF8BD2B4B23407D
:10229000002B49D016F4007F46D02846FFF7FEFDFC
:1022A000F8BD234B23402BB116F4007F02D0FFF77B
:1022B0003FFCF8BD234B234033B116F4007F03D01D
:1022C0002846FFF70FFFF8BD1A4B3B40B3B11A4B3E
:1022D00023404BB116F4806F06D0184B23401BB936
:1022E0002846FFF7D3FBF8BD144B2340E3B116F4A7
:1022F000007F19D02846FFF7AFFAF8BD104B2340F6
:102300004BB116F4806F06D00C4B23401BB9284606
:10231000FFF7E6FBF8BD094B23402BB116F4007F15
:1023200002D02846FFF7A8FAF8BD00BF0800010058
:102330000200010004001000800001000400010000
:10234000400001001000010070B5044603685D699B
:102350005E682F4A154209D016F4807F06D0026CC1
:1023600042F0010202646FF480725A6115F4813FF9
:102370000AD016F4807F07D0236C43F00203236455
:1023800023686FF400725A6115F4823F2CD016F462
:10239000807F29D094F83E30DBB2628D91B294F800
:1023A0003D20D2B2206B202B0CD159B9212A05D067
:1023B000292A03D0282A05D1212803D12046FFF756
:1023C000CDFB11E0236C43F00403236494F83E300A
:1023D000DBB2102B04D12268136843F4007313603E
:1023E00023686FF480625A6115F4843F0AD016F4B2
:1023F000807F07D0236C43F00803236423686FF4C5
:1024000000625A61236C13B12046FFF7C5FD70BD11
:102410000001010008B5806B0268136823F4806333
:10242000136000234385426B1365826B136590F83C
:102430003D30DBB2602B0ED1202380F83D300023ED
:1024400080F83E3003640268136823F001031360D0
:10245000FFF7A0FD08BD202380F83D30002380F861
:102460003E300268136823F001031360FFF790FD0C
:1024700008BD00BF30B583B0044603680F2B03D9F5
:10248000F321A94802F084FE236813F0010F66D0FF
:1024900063684BB1B3F5803F06D0B3F5A02F03D0EE
:1024A000F821A14802F074FEA04B9B6803F00C03D6
:1024B000042B0AD09D4B9B6803F00C03082B0DD115
:1024C0009A4B5B6813F4800F08D0984B1B6813F489
:1024D000003F44D06368002B41D1FFE16368B3F54E
:1024E000803F05D1914A136843F48033136015E0AF
:1024F000B3F5A02F09D18D4B1A6842F480221A60DF
:102500001A6842F480321A6008E0884B1A6822F494
:1025100080321A601A6822F480221A6063687BB1E4
:10252000FDF7B0FF054605E0FDF7ACFF401B642852
:1025300000F2D6817D4B1B6813F4003FF4D00EE00F
:10254000FDF7A0FF054605E0FDF79CFF401B642852
:1025500000F2C881754B1B6813F4003FF4D1236867
:1025600013F0020F6AD0E368012B04D94FF4957180
:102570006D4802F00DFE23691F2B04D940F22B1188
:10258000694802F005FE694B9B6813F00C0F0AD0F6
:10259000664B9B6803F00C03082B1BD1634B5B68F5
:1025A00013F4800F16D1614B1B6813F0020F03D098
:1025B000E368012B40F098815C48036823F0F80140
:1025C0002369F82292FAA2F2B2FA82F293400B4304
:1025D000036033E0E368FBB10122554B1A60FDF75D
:1025E00051FF054605E0FDF74DFF401B022800F2B4
:1025F0007D814E4B1B6813F0020FF4D04B480368EB
:1026000023F0F8012369F82292FAA2F2B2FA82F2D8
:1026100093400B43036011E00022454B1A60FDF725
:1026200031FF054605E0FDF72DFF401B022800F2B3
:102630005F813E4B1B6813F0020FF4D1236813F047
:10264000080F2ED06369012B04D940F26B11364874
:1026500002F09EFD636993B10122364B1A60FDF7CB
:1026600011FF054605E0FDF70DFF401B022800F2B3
:1026700041812E4B5B6F13F0020FF4D011E000226A
:102680002C4B1A60FDF7FEFE054605E0FDF7FAFE4D
:10269000401B022800F23081244B5B6F13F0020FC5
:1026A000F4D1236813F0040F76D0A368012B06D968
:1026B000052B04D040F295111B4802F069FD002360
:1026C00001931A4B1A6C42F080521A641B6C03F08F
:1026D00080530193019B184A136843F4807313607D
:1026E000FDF7D0FE054605E0FDF7CCFE401B0228B5
:1026F00000F20481104B1B6813F4807FF4D0A368B0
:10270000012B05D1094A136F43F0010313671EE043
:10271000052B13D1054B1A6F42F004021A671A6F8A
:1027200042F001021A6712E0FCA5000800380240DE
:1027300000004742800E474200700040784B1A6FFD
:1027400022F001021A671A6F22F004021A67A368C6
:102750008BB1FDF797FE054607E0FDF793FE401BA2
:1027600041F28833984200F2CB806D4B1B6F13F01F
:10277000020FF2D010E0FDF785FE054607E0FDF7F9
:1027800081FE401B41F28833984200F2BB80644BCB
:102790001B6F13F0020FF2D1A369022B04D94FF47F
:1027A000E571604802F0F4FCA269002A00F0AC80F8
:1027B0005B4B9B6803F00C03082B40F0A780022AB8
:1027C00079D1E3693BB1B3F5800F04D040F2D31166
:1027D000544802F0DDFC236A3F2B04D94FF4EA7120
:1027E000504802F0D5FC636A323BB3F5BF7F04D991
:1027F00040F2D5114B4802F0CBFCA36A022B0AD061
:10280000042B08D0062B06D0082B04D04FF4EB7114
:10281000444802F0BDFCE36A023B0D2B04D940F2B0
:10282000D711404802F0B4FC00223F4B1A60FDF77C
:1028300029FE054604E0FDF725FE401B022867D867
:10284000374B1B6813F0007FF5D1E169236A194308
:10285000636A47F6C07292FAA2F2B2FA82F2934029
:102860001943A36A5B085A1E4FF4403393FAA3F34B
:10287000B3FA83F302FA03F30B43E26A4FF0706199
:1028800091FAA1F1B1FA81F18A401343244A5360CD
:102890000122254B1A60FDF7F5FD044604E0FDF723
:1028A000F1FD001B022835D81D4B1B6813F0007F7B
:1028B000F5D0002031E000221B4B1A60FDF7E2FD4D
:1028C000044604E0FDF7DEFD001B022824D8144B6B
:1028D0001B6813F0007FF5D100201EE001201CE0F2
:1028E00003201AE0032018E0012016E0032014E082
:1028F000032012E0032010E003200EE003200CE090
:1029000003200AE0032008E0002006E0012004E0A4
:10291000032002E0032000E0032003B030BD00BF2D
:1029200000380240FCA5000860004742254B9B6828
:1029300003F00C03042B3FD0082B01D02248704732
:1029400010B4204B586800F03F005B6813F4800F10
:1029500010D01E4BB3FBF0F01A4B5A6847F6C0710B
:102960000A4091FAA1F3B3FA83F322FA03F303FBCB
:1029700000F310E0144BB3FBF0F0124B5A6847F62B
:10298000C07402EA040194FAA4F2B2FA82F221FAC3
:1029900002F202FB00F30B4A506800F440324FF49D
:1029A000403090FAA0F0B0FA80F022FA00F0013046
:1029B0004000B3FBF0F001E0044870475DF8044BC1
:1029C000704700BF003802400024F40000127A0073
:1029D00070B504460D460368013B0E2B04D940F246
:1029E00035218F4802F0D4FB072D04D940F236215F
:1029F0008B4802F0CDFB8B4B1B6803F00F039D420D
:102A000008D9EBB2874A1370136803F00F039D4295
:102A100040F0F480236813F0020F1DD0A368A3B127
:102A2000802B12D0902B10D0A02B0ED0B02B0CD01E
:102A3000C02B0AD0D02B08D0E02B06D0F02B04D02E
:102A400040F24D21764802F0A3FB77498B6823F0D2
:102A5000F002A36813438B60236813F0010F6BD05F
:102A60006368032B04D94FF415716D4802F090FB95
:102A70006268012A05D16C4B1B6813F4003F0FD12B
:102A8000BEE0931E012B05D8674B1B6813F0007F37
:102A900006D1B7E0644B1B6813F0020F00F0B4805E
:102AA00061498B6823F0030313438B60FDF7EAFC55
:102AB00006466368012B0FD107E0FDF7E3FC801B9E
:102AC00041F28833984200F2A180574B9B6803F093
:102AD0000C03042BF1D12FE0022B0FD107E0FDF7FF
:102AE000D1FC801B41F28833984200F291804E4B1A
:102AF0009B6803F00C03082BF1D11DE0032B16D1CA
:102B000007E0FDF7BFFC801B41F28833984200F2DA
:102B10008180454B9B6803F00C030C2BF1D10BE03B
:102B2000FDF7B0FC801B41F28833984274D83E4BCD
:102B30009B6813F00C0FF3D13A4B1B6803F00F03A3
:102B40009D4207D2EAB2374B1A701B6803F00F039D
:102B50009D4263D1236813F0040F19D0E36883B159
:102B6000B3F5805F0DD0B3F5A05F0AD0B3F5C05FB9
:102B700007D0B3F5E05F04D040F2B221284802F05C
:102B800007FB29498B6823F4E052E36813438B6009
:102B9000236813F0080F1AD0236983B1B3F5805F5F
:102BA0000DD0B3F5A05F0AD0B3F5C05F07D0B3F581
:102BB000E05F04D040F2B921194802F0E9FA1A4A5C
:102BC000936823F46043216943EAC1039360FFF7EC
:102BD000ADFE154B9B6803F0F002F02393FAA3F3CC
:102BE000B3FA83F322FA03F3104AD35CD840104BB4
:102BF0001860002002F06EFC002070BD012070BD46
:102C0000012070BD012070BD012070BD032070BD8A
:102C1000032070BD032070BD032070BD012070BD76
:102C2000FCA50008003C0240003802404CA8000807
:102C300008000020014B1868704700BF0800002002
:102C400008B5FFF7F7FF084B9B6803F4E0524FF419
:102C5000E05393FAA3F3B3FA83F322FA03F3034A9C
:102C6000D35CD84008BD00BF003802405CA8000813
:102C700008B5FFF7DFFF084B9B6803F460424FF491
:102C8000604393FAA3F3B3FA83F322FA03F3034AFC
:102C9000D35CD84008BD00BF003802405CA80008E3
:102CA0000F2303600B4B9A6802F0030242609A689C
:102CB00002F0F00282609A6802F4E052C2609B68FF
:102CC000DB0803F4E0530361034B1B6803F00F03BD
:102CD0000B60704700380240003C0240002800F0C2
:102CE000B78010B5044603685A4A93420CD0A2F547
:102CF0007842934208D002F58062934204D04FF4A8
:102D00008871554802F044FA63683BB1B3F5827F9D
:102D100004D040F21111504802F03AFAA36853B1BE
:102D2000B3F5806F07D0B3F5004F04D04FF489712D
:102D3000494802F02DFAE368B3F5006F05D023B1DE
:102D400040F21311444802F023FAA369B3F5007F5F
:102D500008D03BB1B3F5802F04D04FF48A713E48C0
:102D600002F016FAE36993B1082B10D0102B0ED0A5
:102D7000182B0CD0202B0AD0282B08D0302B06D0B3
:102D8000382B04D040F21511334802F001FA236ABF
:102D900033B1802B04D04FF48B712F4802F0F8F937
:102DA000636A33B1102B04D040F217112A4802F0A5
:102DB000EFF9636A83B9236933B1022B04D04FF46E
:102DC0008D71254802F0E4F96369012B04D940F2C2
:102DD0001B11214802F0DCF90023A36294F8513062
:102DE00013F0FF0F05D1002384F85030204602F085
:102DF000BFFA022384F851302268136823F040039D
:102E0000136021686268A3681A43E3681A43236960
:102E10001A4363691A43A36903F400731343E26915
:102E20001343226A1343A26A1A430A602168638B20
:102E300003F00402636A13434B602268D36923F4EE
:102E40000063D36100206065012384F8513010BD18
:102E5000012070470030014028A60008704700BFDD
:102E600010B504460368234A934237D0B3F1804F2C
:102E700034D0A2F57C42934230D002F58062934276
:102E80002CD002F58062934228D002F580629342F2
:102E900024D002F58062934220D002F57042934222
:102EA0001CD002F57052934218D002F58062934212
:102EB00014D002F58062934210D0A2F5983293426A
:102EC0000CD002F58062934208D002F580629342F2
:102ED00004D04FF4B271084802F05AF92268D3685E
:102EE00043F00103D3602268136843F001031360C9
:102EF000002010BD0000014054A60008704700BF2C
:102F0000704700BF704700BF704700BF10B5044650
:102F100003681A6912F0020F17D0DA6812F0020F74
:102F200013D06FF002021A610123037603689B69D4
:102F300013F0030F02D0FFF7E3FF04E0FFF7DEFF1B
:102F40002046FFF7DFFF0023237623681A6912F07B
:102F5000040F19D0DA6812F0040F15D06FF00402D4
:102F60001A610223237623689B6913F4407F03D000
:102F70002046FFF7C5FF05E02046FFF7BFFF2046CC
:102F8000FFF7C0FF0023237623681A6912F0080FA9
:102F900019D0DA6812F0080F15D06FF008021A6124
:102FA000042323762368DB6913F0030F03D0204644
:102FB000FFF7A6FF05E02046FFF7A0FF2046FFF73A
:102FC000A1FF0023237623681A6912F0100F19D08D
:102FD000DA6812F0100F15D06FF010021A61082392
:102FE00023762368DB6913F4407F03D02046FFF784
:102FF00087FF05E02046FFF781FF2046FFF782FFAD
:103000000023237623681A6912F0010F09D0DA68C9
:1030100012F0010F05D06FF001021A61204601F095
:1030200059FF23681A6912F0800F09D0DA6812F08C
:10303000800F05D06FF080021A61204600F026F95B
:1030400023681A6912F0400F09D0DA6812F0400FB5
:1030500005D06FF040021A612046FFF755FF236844
:103060001A6912F0200F09D0DA6812F0200F05D08B
:103070006FF020021A61204600F006F910BD00BF73
:103080000368454A904214D0B0F1804F13D0A2F5A6
:103090007C42904211D002F5806290420FD002F53E
:1030A000806290420DD002F5784290420BD101220D
:1030B0000AE0012208E0012206E0012204E00122E8
:1030C00002E0012200E000221AB123F070034A68F6
:1030D0001343314A90422CD0B0F1804F2BD0A2F54F
:1030E0007C42904229D002F58062904227D002F5BE
:1030F0008062904225D002F57842904223D002F5BA
:103100007052904221D002F5806290421FD002F5A9
:10311000806290421DD0A2F5983290421BD002F5F9
:103120008062904219D002F58062904217D101224C
:1031300016E0012214E0012212E0012210E0012237
:103140000EE001220CE001220AE0012208E0012247
:1031500006E0012204E0012202E0012200E0002258
:103160001AB123F44073CA68134303608B68C362C7
:103170000B688362084B984205D003F58063984240
:1031800003D1012302E0012300E000230BB10B690E
:1031900003630123436170470000014000286DD0A4
:1031A00010B504460368364A934236D0B3F1804FD7
:1031B00033D0A2F57C4293422FD002F58062934235
:1031C0002BD002F58062934227D002F580629342B1
:1031D00023D002F5806293421FD002F570429342E1
:1031E0001BD002F57052934217D002F580629342D1
:1031F00013D002F5806293420FD0A2F59832934229
:103200000BD002F58062934207D002F580629342B0
:1032100003D0D9211B4801F0BBFFA3685BB1102B81
:1032200009D0202B07D0402B05D0602B03D0DA210A
:10323000144801F0ADFF23694BB1B3F5807F06D090
:10324000B3F5007F03D0DB210E4801F0A1FF94F815
:10325000393013F0FF0F05D1002384F838302046B1
:10326000FFF7FCFD022384F83930211D2068FFF7A9
:1032700007FF012384F83930002010BD012070477A
:103280000000014054A60008704700BF704700BF0F
:103290000268D36823F49073D3600268536923F003
:1032A00001035361202380F83A30704790F8393099
:1032B000DBB2212B2BD18368B3F5805F0FD1036A7A
:1032C00002681B88C3F30803536003691BB9036AD0
:1032D0000233036209E0036A0133036205E0026816
:1032E000036A591C01621B785360C38C9BB2013B7B
:1032F0009BB2C3846BB90268D36823F08003D360A8
:103300000268D36843F04003D36000207047022076
:1033100070470020704700BF2DE9F843044642681B
:10332000B14B9A4204D940F68711B04801F030FF02
:10333000E3683BB1B3F5005F04D040F68811AB48B9
:1033400001F026FF236953B1B3F5806F07D0B3F5C1
:10335000C06F04D040F68911A44801F019FF6369D9
:103360004FF6F372134200D123B940F68A119F48F9
:1033700001F00EFF21680B6923F44052E368134308
:103380000B612068C36823F4164222F00C02A16886
:103390002369194363691943E3690B431343C3600A
:1033A00021684B6923F44072A36913434B61E369BD
:1033B000B3F5004F40F0BB80276803F1804303F56D
:1033C00010439F4203D003F580639F4257D1FFF71C
:1033D0004FFC00EB800000EB800065686D00B0FBE7
:1033E000F5F5834EA6FB05356D092D01FFF740FC71
:1033F00000EB800000EB800063685B00B0FBF3F93A
:10340000FFF736FC00EB800000EB800063685B0098
:10341000B0FBF3F3A6FB03235B094FF0640808FB42
:103420001393DB003233A6FB03235B095B0003F439
:10343000F8731D44FFF71CFC00EB800000EB8000DC
:1034400063685B00B0FBF3F9FFF712FC00EB800050
:1034500000EB800063685B00B0FBF3F3A6FB032383
:103460005B0908FB13984FEAC80808F13208A6FB6D
:103470000836C6F342163544BD60BDE8F883FFF751
:10348000DFFB00EB800000EB800065686D00B0FBA7
:10349000F5F5574EA6FB05356D092D01FFF7D0FB5D
:1034A00000EB800000EB800063685B00B0FBF3F989
:1034B000FFF7C6FB00EB800000EB800063685B0059
:1034C000B0FBF3F3A6FB03235B094FF0640808FB92
:1034D0001393DB003233A6FB03235B095B0003F489
:1034E000F8731D44FFF7ACFB00EB800000EB80009D
:1034F00063685B00B0FBF3F9FFF7A2FB00EB800011
:1035000000EB800063685B00B0FBF3F3A6FB0323D2
:103510005B0908FB13984FEAC80808F13208A6FBBC
:103520000836C6F342163544BD60BDE8F883266808
:10353000304B9E4203D003F580639E425CD1FFF77F
:1035400097FB00EB800000EB80006568AD00B0FBEE
:10355000F5F5274FA7FB05356D092D01FFF788FB12
:1035600000EB800000EB800063689B00B0FBF3F889
:10357000FFF77EFB00EB800000EB800063689B00A0
:10358000B0FBF3F3A7FB03235B094FF0640909FBCE
:1035900013831B013233A7FB03235B0903F0F00302
:1035A0001D44FFF765FB00EB800000EB80006368C3
:1035B0009B00B0FBF3F8FFF75BFB00EB800000EB38
:1035C000800063689B00B0FBF3F3A7FB03235B0958
:1035D00009FB13831B013233A7FB0323C3F34313FC
:1035E0001D44B560BDE8F883A037A00080A60008A0
:1035F0001F85EB5100100140FFF722FB00EB80001C
:1036000000EB80006568AD00B0FBF5F5254FA7FB2A
:1036100005356D092D01FFF713FB00EB800000EB72
:10362000800063689B00B0FBF3F8FFF709FB00EB39
:10363000800000EB800063689B00B0FBF3F3A7FB06
:1036400003235B094FF0640909FB13831B01323329
:10365000A7FB03235B0903F0F0031D44FFF7F0FA17
:1036600000EB800000EB800063689B00B0FBF3F888
:10367000FFF7E6FA00EB800000EB800063689B0038
:10368000B0FBF3F3A7FB03235B0909FB13831B01C7
:103690003233A7FB0323C3F343131D44B560BDE8D6
:1036A000F88300BF1F85EB51002800F0888010B51B
:1036B000044683692BB30368424A934210D0A2F5B3
:1036C0004C4293420CD002F58062934208D002F53E
:1036D0004C42934204D04FF481713B4801F058FDB5
:1036E000A3695BB3B3F5807F28D0B3F5007F25D005
:1036F000B3F5407F22D040F20311334801F048FD7A
:103700001CE003682F4A934218D0A2F54C42934222
:1037100014D002F58062934210D002F58062934289
:103720000CD002F58062934208D002F544429342E5
:1037300004D040F20711244801F02AFDA3683BB1F0
:10374000B3F5805F04D040F209111F4801F020FD5D
:10375000E3693BB1B3F5004F04D04FF485711A48CB
:1037600001F016FD94F8393013F0FF0F05D1002356
:1037700084F83830204601F023FE242384F83930C1
:103780002268D36823F40053D3602046FFF7C4FDBA
:103790002268136923F4904313612268536923F06C
:1037A0002A0353612268D36843F40053D360002096
:1037B000E063202384F8393084F83A3010BD0120CA
:1037C000704700BF0010014080A60008704700BF8E
:1037D00008B50168CB6823F04003CB60202380F854
:1037E0003930FFF7F3FF002008BD00BF704700BF6E
:1037F00008B590F83A30DBB2222B3FD18368B3F59D
:10380000805F13D1826A036943B903685B68C3F3BD
:1038100008031380836A0233836218E003685B68DD
:10382000DBB21380836A0133836210E0036933B92A
:10383000836A5A1C8262026852681A7007E0826AC0
:10384000531C836203685B6803F07F031370C38DAE
:103850009BB2013B9BB2C38593B90268D36823F442
:103860009073D3600268536923F0010353612023EE
:1038700080F83A30FFF7BAFF002008BD022008BDEB
:10388000002008BD704700BF10B5044602681368E9
:10389000D168526913F00F0009D113F0200F06D040
:1038A00011F0200F03D02046FFF7A2FF10BD002823
:1038B00062D012F0010202D111F4907F5CD013F0BB
:1038C000010F06D011F4807F03D0E06B40F00100BF
:1038D000E06313F0040F04D01AB1E06B40F0020073
:1038E000E06313F0020F04D01AB1E06B40F0040063
:1038F000E06313F0080F04D01AB1E26B42F0080243
:10390000E263E26B002A4AD013F0200F05D011F0D9
:10391000200F02D02046FFF76BFF23685B6903F09E
:103920004003E26B12F0080F00D1FBB12046FFF715
:10393000AFFC23685A6912F0400F13D05A6922F085
:1039400040025A61636B4BB1154A1A65606BFDF713
:1039500091FB20B3606B036D984710BD2046FFF7C5
:1039600091FF10BD2046FFF78DFF10BD2046FFF7E9
:1039700089FF0023E36310BD13F0800F06D011F020
:10398000800F03D02046FFF791FC10BD13F0400FCD
:1039900005D011F0400F02D02046FFF719FF10BDEF
:1039A000A539000808B5806B0023C385C384FFF7E1
:1039B00069FF08BD08B50D4B1B6813B90C4A0B4BCA
:1039C0001A600A4B1A68C31C23F003031344094905
:1039D0008B4206D901F066FE0C2303604FF0FF30E6
:1039E00008BD02490B60104608BD00BFC009002099
:1039F000E04B002000FC012000B508B9044D00E0B8
:103A0000044D182420462946ABBE0446FEE700BFFD
:103A100026000200230002002DE9F04184B0234F6C
:103A200001970326039600230293012401AD20464B
:103A30002946ABBE80461E4BC3F800800197039613
:103A40000423029320462946ABBE8046194BC3F897
:103A50000080019703960823029320462946ABBEB7
:103A60000446154B1C60B4F1FF3F03D1114B1A689B
:103A7000114B1A60002305E04FF0FF310F4A42F866
:103A800033100133132BF7DD0C4B094A12681A600F
:103A900000225A60074909689960DA600649096896
:103AA00019615A6104B0BDE8F08100BFB0A60008FA
:103AB000180A0020C40900201C0A0020480A00201F
:103AC0002DE9F04782B082468946364B00934F235A
:103AD00001936D46152420462946ABBE0446002CB2
:103AE00046D14FF000082F4B83F84F80009D47468A
:103AF000464638E0F6B901F0E7FD204490F9013080
:103B0000002B03DB092C03D1012302E0012300E099
:103B100000233BBBB8F1080F2CDC222C01D0272C52
:103B200001D101352746204B43F8285008F1010800
:103B3000012617E02FB1A74214D100262E70374678
:103B400010E001F0C1FD204490F90130002B03DBAF
:103B5000092C03D1012302E0012300E000230BB173
:103B600000262E70013595F90040002CC2D101E0ED
:103B70004FF00008B8F1000F06D10A4B00221A706E
:103B8000094A136008F10108074B002243F8282076
:103B9000CAF80080C9F80030FFF73EFF02B0BDE868
:103BA000F08700BFC8090020200A00200FB400B52C
:103BB00083B004AB53F8042B01938021064802F034
:103BC00087FB002803DD0146034800F03FF803B0FF
:103BD0005DF804EB04B07047E80A0020F0B585B04A
:103BE00006460C46174B1B6883B9174B01930423F9
:103BF00002930323039301AF012528463946ABBE48
:103C00000546B5F1FF3F13D00E4B1D600D4B1B68F1
:103C100001930296039401AE052528463146ABBEBA
:103C20000546B5F1FF3F06D0A54207D0601B07E06F
:103C30004FF0FF3004E04FF0FF3001E04FF0FF3075
:103C400005B0F0BD680B0020B0A6000808B5FFF76E
:103C5000C5FF08BD08B501F0AFFC054B054A9A60E9
:103C6000D3F8882042F47002C3F8882008BD00BF52
:103C700000ED00E000000008F8B504460D461746C8
:103C80001E462648FFF792FF21682548FFF78EFF62
:103C900061682448FFF78AFFA1682348FFF786FF81
:103CA000E1682248FFF782FF21692148FFF77EFF84
:103CB00061692048FFF77AFFA1691F48FFF776FF87
:103CC000E1691E48FFF772FF1D48FFF76FFF2946A5
:103CD0001C48FFF76BFF1C4CE16A1C48FFF766FFAE
:103CE000216B1B48FFF762FFE16B1A48FFF75EFF8D
:103CF00015F0800F03D039461748FFF757FF15F42A
:103D0000004F03D031461548FFF750FF1448FFF726
:103D10004DFF06991348FFF749FFF8BDBCA6000800
:103D2000CCA60008DCA60008ECA60008FCA600084B
:103D30000CA700081CA700082CA700083CA7000837
:103D40004CA7000858A7000800ED00E068A700088D
:103D500078A7000888A7000898A70008A8A7000867
:103D6000B8A70008C0A7000838B583691B888B4234
:103D70006FD1044603684568013B302B6BD8DFE800
:103D800003F0421D63635A2C2F2919196A19191956
:103D900019193219206A19236A356A6A6A6A6A6AC5
:103DA0006A6A6A6A6A6A6A6A6A6A6A6A6A6A6A6A73
:103DB0006A1919004FF0FF33036045E000230360E8
:103DC00042E0002303603FE000232B606B60AB60A8
:103DD000EB6039E00023036036E0AB68036033E05A
:103DE0000023036030E0002303602DE0BFF34F8F1A
:103DF0001A49CA6802F4E062194B1343CB60BFF35F
:103E00004F8F00BFFDE71749286802F03DF870B9F1
:103E10006B6813B90123236016E0042B02D102233F
:103E2000236011E0082B02D1032323600CE04FF044
:103E3000FF33236008E02B68023B012B02D80023EC
:103E4000036001E0AB680360A3690233A361012052
:103E500038BD002038BD002038BD00BF00ED00E0B7
:103E60000400FA05B0A60008FEE70000842801D08F
:103E7000033070470020704708B500F079FC00203F
:103E800008BD00BFF0B585B00F46446805680669F7
:103E9000B0F90800FFF7EAFF03AB019300903B463F
:103EA000B2B22946204600F031FC012801D1039826
:103EB00000E0002005B0F0BD08B508B90120FFE71B
:103EC00000F0AAFD002008BD08B500F055FE01284D
:103ED00001D000F037FA08BD124A12F0070F07D0E0
:103EE000D11D21F00701C1F5705313440A4601E0CA
:103EF0004FF470530C480260002141601344083BAA
:103F000023F007030948036059601960991A51604A
:103F10001360074B1960074B19604FF00042064BC6
:103F20001A6070477C0B0020740B0020700B00207F
:103F3000804700206C0B00207C470020134B00E0E2
:103F400013461A688242FBD310B45C681919884280
:103F500003D14168214459601846446801198A42D6
:103F60000CD10B4909688A4206D05268224442604B
:103F70001A681268026002E0016000E00260984284
:103F800000D018605DF8044B704700BF740B002030
:103F9000700B002070B5044600F028FC394B1B68FC
:103FA0000BB9FFF799FF384B1B681C4253D194B1F2
:103FB000083414F0070F0ED024F00704083404F07E
:103FC000070343B14FF0500383F31188BFF36F8FA2
:103FD000BFF34F8FFEE7002C3FD02C4B1B689C4259
:103FE0003DD82B4B1D6801E02B4615466A6894426C
:103FF00002D92A68002AF7D1224A1268954230D0A5
:104000001E6808362A681A606B681B1B102B10D9B3
:10401000281910F0070F08D04FF0500383F31188D0
:10402000BFF36F8FBFF34F8FFEE743606C60FFF706
:1040300085FF6A6815490B689B1A0B60154909686A
:104040008B4201D213490B600F4B1B681A436A6005
:1040500000232B6006E0002604E0002602E0002694
:1040600000E0002600F05CFC16F0070F08D04FF0CF
:10407000500383F31188BFF36F8FBFF34F8FFEE7B9
:10408000304670BD700B00207C4700206C0B002078
:10409000740B002080470020A0B338B50346A0F180
:1040A000080550F8042C1849096812EA010408D1DF
:1040B0004FF0500383F31188BFF36F8FBFF34F8F1F
:1040C000FEE750F8080C40B14FF0500383F311881D
:1040D000BFF36F8FBFF34F8FFEE794B188B91C46D3
:1040E00022EA010243F8042C00F080FB54F8043C5F
:1040F000064A11680B4413602846FFF71FFF00F0C3
:104100000FFC38BD704700BF7C4700206C0B0020BF
:1041100000F1080343604FF0FF328260C360036127
:1041200000230360704700BF00230361704700BF96
:1041300043684B609A688A609A6851609960086128
:10414000036801330360704730B40D68B5F1FF3F79
:1041500001D1026907E000F1080200E01A46536845
:104160001C68A542FAD253684B6099608A6051601E
:10417000086103680133036030BC7047036942681B
:10418000816891608268416851605A68904201D1AB
:1041900082685A600022026118680138186070470E
:1041A0000B4B1B68B3F1FF3F08D04FF0500383F374
:1041B0001188BFF36F8FBFF34F8FFEE74FF05003AF
:1041C00083F31188BFF36F8FBFF34F8FFEE700BFFC
:1041D0000400002006480068006880F3088862B682
:1041E00061B6BFF34F8FBFF36F8F00DF00BF0000DA
:1041F00008ED00E0DFF80C00016841F47001016097
:104200007047000088ED00E04FF0807340F8043CF8
:1042100021F0010140F8081C054B40F80C3C40F827
:10422000202C6FF0020340F8243C4438704700BF54
:10423000A141000800000000000000000000000094
:10424000074B19680868B0E8F04F80F30988BFF39E
:104250006F8F4FF0000080F311887047AFF300803C
:104260004C4800204FF0500383F31188BFF36F8F49
:10427000BFF34F8F0A4A136801331360012B0DD12E
:10428000084B1B6813F0FF0F08D04FF0500383F367
:104290001188BFF36F8FBFF34F8FFEE7704700BFEA
:1042A0000400002004ED00E0094B1B6843B94FF007
:1042B000500383F31188BFF36F8FBFF34F8FFEE777
:1042C000013B034A13600BB983F31188704700BFA9
:1042D00004000020000000000000000000000000BA
:1042E000EFF30980BFF36F8F154B1A681EF0100FA4
:1042F00008BF20ED108A20E9F04F10604DF8043D12
:104300004FF0500080F31188BFF34F8FBFF36F8FD2
:1043100000F0E8FB4FF0000080F3118808BC19683A
:104320000868B0E8F04F1EF0100F08BFB0EC108A1C
:1043300080F30988BFF36F8F704700BFAFF3008031
:104340004C48002008B54FF0500383F31188BFF3A9
:104350006F8FBFF34F8F00F051FA18B14FF08052BA
:10436000024B1A60002383F3118808BD04ED00E0BE
:10437000064B1B68064AA2FB03239B09013B054A27
:1043800013600722044B1A60704700BF080000202A
:10439000D34D621014E000E010E000E0314B1A68E9
:1043A000314B9A4208D14FF0500383F31188BFF389
:1043B0006F8FBFF34F8FFEE72A4B1A682B4B9A4241
:1043C00008D14FF0500383F31188BFF36F8FBFF311
:1043D0004F8FFEE700B583B0254B1A78D2B2019219
:1043E000FF221A701B78DBB28DF803309DF8033082
:1043F00003F050031F4A137007221F4B1A6009E095
:104400001D4A1368013B13609DF803305B00DBB26B
:104410008DF803309DF8033013F0800FF0D1164A69
:1044200013681B0203F4E0631360019BDBB2104AC4
:104430001370124B1A6842F470021A601A6842F044
:1044400070421A60FFF794FF00220D4B1A60FFF7CD
:10445000D1FE0C4A136843F040431360FFF7BAFEE5
:10446000FFF79EFE00ED00E071C20F4170C20F41E8
:1044700000E400E0844700208847002020ED00E0B1
:104480000400002034EF00E00A4B1B681B680BB9E6
:10449000012300E0002323B14FF0FF32064B1A60E6
:1044A0007047044B1B68DB68DB685A68024B1A6074
:1044B000704700BF904700206C48002010B50446AC
:1044C000006BFFF7E9FD2046FFF7E6FD10BD00BFDA
:1044D0002DE9F04781460D4617469A46089EDDF8BD
:1044E00024800A9C9200A521206B01F05FFC236BC5
:1044F00007F18042013A03EB820727F00707002308
:1045000006E0E956E21882F83410EA5612B1013397
:104510000F2BF6D9002384F84330062E00D9062647
:10452000E662E66400252565201DFFF7FDFD04F128
:104530001800FFF7F9FD2461C6F10706A661646261
:10454000656584F85850524649463846FFF75CFE88
:104550002060B8F1000F01D0C8F80040BDE8F08736
:1045600038B5002407E004EB840293000E48184499
:10457000FFF7CEFD0134062CF5D90C4D2846FFF788
:10458000C7FD0B4C2046FFF7C3FD0A48FFF7C0FDEF
:104590000948FFF7BDFD0948FFF7BAFD084B1D604C
:1045A000084B1C6038BD00BFB44700207448002091
:1045B0008848002050480020984700209C48002050
:1045C00090470020AC47002010B50446FFF74AFE94
:1045D000214A136801331360204B1B683BB91F4B02
:1045E0001C601368012B0DD1FFF7BAFF0AE01C4BCA
:1045F0001B683BB9194B1B68DA6AE36A9A4201D817
:10460000164B1C60174A1368013313606364E36A36
:10461000012202FA03F1144802680A43026003EB24
:1046200083039A00211D11481044FFF781FDFFF715
:104630003BFE0B4B1B686BB1084B1B68DA6AE36AE5
:104640009A4207D24FF08052094B1A60BFF34F8F46
:10465000BFF36F8F10BD00BF484800204C480020BA
:104660009447002070480020B0480020B447002044
:1046700004ED00E070B504460E461D4B1D681D4B51
:1046800018680430FFF77AFD50B91A4B1B68DA6AD4
:10469000012303FA02F218490B6823EA02030B60B4
:1046A000B4F1FF3F07D136B1124B196804311348FA
:1046B000FFF73EFD70BD2C440E4B1B685C60A542AD
:1046C00007D90F4B18680B4B19680431FFF73CFDF5
:1046D00070BD0C4B1868074B19680431FFF734FDA7
:1046E000094B1B689C4201D2074B1C6070BD00BF88
:1046F000684800204C480020B04800209C4800201A
:10470000AC470020904700206C4800202DE9F04382
:1047100085B006460F46154698469000FFF73AFCCE
:1047200060B181465C20FFF735FC044610B1C0F84B
:10473000309004E04846FFF7AFFC00E000248CB165
:104740000023039302940D9B01930C9B009343461B
:104750002A4639463046FFF7BBFE2046FFF734FFB6
:10476000012001E04FF0FF3005B0BDE8F08300BF4D
:1047700000B583B0174B01930023009380221649A4
:104780001648FFF7C3FF012814D14FF0500383F3FD
:104790001188BFF36F8FBFF34F8F4FF0FF32104B75
:1047A0001A6001220F4B1A6000220F4B1A60FFF7AC
:1047B000F5FD0BE0B0F1FF3F08D14FF0500383F35C
:1047C0001188BFF36F8FBFF34F8FFEE703B05DF823
:1047D00004FB00BF6448002004A80008BD4A00088C
:1047E0006C4800209447002068480020024A136863
:1047F00001331360704700BF40480020F8B53D4BBF
:104800001B68002B69D13C4B1D6801351D60C5B983
:104810003A4B1B681B6843B14FF0500383F3118878
:10482000BFF36F8FBFF34F8FFEE7344A1168344BED
:10483000186810601960334A136801331360FFF77A
:1048400023FE314B1B689D4203D200243AE0012431
:1048500000E00024294B1B681B680BB9012300E012
:10486000002323B14FF0FF32274B1A602AE0234B7D
:104870001B68DB68DE6873689D4202D2224A1360BF
:1048800020E0371D3846FFF779FCB36A1BB106F10B
:104890001800FFF773FCF36A012202FA03F11B48C8
:1048A00002680A43026003EB83039A003946184802
:1048B0001044FFF73DFCF26A164B1B68DB6A9A4214
:1048C000C5D2C7E7134B1B68DB6A03EB83039A006F
:1048D0000F4B9B58012B06D806E00F4A1368013393
:1048E0001360002400E001240C4B1B6803B1012479
:1048F0002046F8BD4048002068480020904700202E
:10490000AC4700208C4700206C480020B0480020B5
:10491000B44700204C480020B0470020B448002095
:1049200038B5344B1B6843B94FF0500383F31188FB
:10493000BFF36F8FBFF34F8FFEE7FFF793FC2D4B55
:104940001A68013A1A601B68002B4CD12A4B1B686D
:1049500033BB00244AE0294BDB68DC6804F1180013
:10496000FFF70CFC251D2846FFF708FCE36A01222F
:1049700002FA03F1224802680A43026003EB830350
:104980009A0029461F481044FFF7D2FBE26A1E4BEB
:104990001B68DB6A9A4204D301221C4B1A6000E0B8
:1049A0000024164B1B68002BD5D10CB1FFF76CFD12
:1049B000174B1C6854B1FFF721FF10B10122134BB4
:1049C0001A60013CF7D10022114B1A600F4B1B6893
:1049D0005BB14FF080520F4B1A60BFF34F8FBFF3A4
:1049E0006F8F012402E0002400E00024FFF75CFC4C
:1049F000204638BD4048002048480020504800204C
:104A0000B0480020B44700204C480020B4480020A3
:104A1000B047002004ED00E010B5A8B10446104BEB
:104A20001B6843B14FF0500383F31188BFF36F8FBE
:104A3000BFF34F8FFEE7FFF7D9FE00212046FFF7B7
:104A400019FEFFF76DFF00E0002038B94FF08052EB
:104A5000044B1A60BFF34F8FBFF36F8F10BD00BFC1
:104A60004048002004ED00E010B51BE0FFF7BEFE5B
:104A70000F4B1C68FFF754FFA4B1FFF7F3FB0C4B7F
:104A8000DB68DC68201DFFF779FB0A4A1368013BED
:104A90001360094A1368013B1360FFF705FC2046C9
:104AA000FFF70CFD044B1B68002BDFD110BD00BFCE
:104AB00098470020484800204448002008B5FFF7E8
:104AC000D3FF064B1B68012BF9D94FF08052044BE2
:104AD0001A60BFF34F8FBFF36F8FF0E7B44700202A
:104AE00004ED00E01F4B1B681BB101221E4B1A6036
:104AF000704700221C4B1A601C4B1B68B3FA83F3EF
:104B0000DBB2C3F11F0303EB83018A0018498A5803
:104B100042B94FF0500383F31188BFF36F8FBFF397
:104B20004F8FFEE730B4124D9900CA189000284408
:104B300042685468446019448A0008322A44944206
:104B400005D1606803EB83018A002A44506003EBBF
:104B500083039A00064B1A445368DA68054B1A60BF
:104B600030BC704740480020B4480020B0480020C6
:104B7000B44700204C480020054B1B6823B1054B6F
:104B80001B681BB902207047012070470020704746
:104B9000944700204048002008B5FBF751FC00F086
:104BA00045F900F02FFD08BD2DE9F04F8DB0002430
:104BB00001947B4B1A6B42F004021A631A6B02F0E9
:104BC00004020192019A02941A6B42F080021A6365
:104BD0001A6B02F080020292029A03941A6B42F05E
:104BE00001021A631A6B02F001020392039A049401
:104BF0001A6B42F002021A631A6B02F0020204926C
:104C0000049A05941A6B42F010021A631A6B02F0B0
:104C100010020592059A06941A6B42F008021A6374
:104C20001B6B03F008030693069BDFF88C810122BF
:104C300011464046FCF7B8FC5A4E22464FF46061DC
:104C40003046FCF7B1FC22464FF210015648FCF703
:104C5000ABFC01270797089709940A9407A94046D7
:104C6000FCF70CFB082307930225089509940A9486
:104C70004FF0050BCDF82CB007A94046FCF7FEFA23
:104C80000797DFF83891CDF82090099407A9474895
:104C9000FCF7F4FA10230793089509940A944FF04F
:104CA000060ACDF82CA007A94048FCF7E7FA042330
:104CB00007930894099407A93D48FCF7DFFA4FF4DD
:104CC00060630793089709940A9407A93046FCF794
:104CD000D5FA4FF4405307930894099407A9304636
:104CE000FCF7CCFA4FF4004307930323089309948D
:104CF00007A93046FCF7C2FA4FF480630793089582
:104D000009940A94CDF82CB007A92948FCF7B6FA03
:104D10004FF400630793274B0893099407A922488F
:104D2000FCF7ACFA4FF210030793089709940A9422
:104D300007A91D48FCF7A2FA4FF4A453079308955E
:104D400009940A94CDF82CA007A94046FCF796FADE
:104D50004FF4007307930894099407A91348FCF7CC
:104D60008DFA4FF4E0530793089509940A940A23A7
:104D70000B9307A90D48FCF781FA202307930894A9
:104D8000099407A90848FCF779FA0795CDF820900F
:104D9000099407A93046FCF771FA0DB0BDE8F08F11
:104DA0000038024000100240000C024000000240A7
:104DB0000004024000001110000802400000121020
:104DC00000B583B000220192094B196B41F4001128
:104DD00019631B6B03F400130193019B0521102041
:104DE000FBF71EFF1020FBF75DFF03B05DF804FB2F
:104DF0000038024008B54FF400410448FCF7EEFBD0
:104E00004FF4FA70FFF758F8F5E700BF000C0240C6
:104E100008B54FF480410448FCF7E0FB4FF4FA601A
:104E2000FFF74AF8F5E700BF000C0240F0B595B077
:104E300000240194244B1A6C42F080521A641B6CBB
:104E400003F080530193019B0294204B1A6842F4B3
:104E500080421A601B6803F480430293029B03277D
:104E600008974FF48033099302250E954FF4800381
:104E70000F9308231093C8231193129507231393BC
:104E800008A8FDF7F7FA0F260396049505944FF44A
:104E9000A05306934FF480530793394603A8FDF7B8
:104EA00097FDFDF7C7FE0A4BA3FB00308009FBF717
:104EB0000FFF0420FBF722FF224631464FF0FF3060
:104EC000FBF7AEFE15B0F0BD0038024000700040A8
:104ED000D34D621008B50268024B9A4201D1FBF72C
:104EE000C9FA08BD00040040FEE700BF08B50B4842
:104EF0000B4B03601023436000238360C360036196
:104F000043618361C361036243628362C362FBF7EF
:104F100033FD08B1FFF7E8FF08BD00BF604B00207C
:104F20000064004008B50A480A4B03600A4B43601E
:104F300000238360C3604FF4804202614361836158
:104F4000C3610362FCF7A8FC08B1FFF7CDFF08BD01
:104F5000E449002000540040A086010008B50D4837
:104F60000D4B03604FF48273436000238360C36082
:104F7000036143614FF400728261C3610362436263
:104F800083620A23C362FDF7A9FE08B1FFF7ACFFF5
:104F900008BD00BFC84A00200030014008B50A48DB
:104FA0000A4B03604FF41653436000238360C360D1
:104FB00003610C2242618361C361FEF775FB08B196
:104FC000FFF792FF08BD00BF204B002000440040C7
:104FD00008B50A480A4B03604FF4E13343600023ED
:104FE0008360C36003610C2242618361C361FEF789
:104FF0005BFB08B1FFF778FF08BD00BF5C490020EC
:105000000048004000B585B01248134B03600023F0
:1050100043608360036183610362C3620F4A8262FB
:10502000C3600122C26103634261FBF7DBFA08B18E
:10503000FFF75AFF082300930123019300230293F3
:1050400069460448FBF7B8FB08B1FFF74DFF05B010
:105050005DF804FB384A0020002001400100000FE9
:1050600000B585B01248134B036000234360836092
:10507000036183610362C3620F4A8262C3600122DB
:10508000C26103634261FBF7ADFA08B1FFF72CFF81
:1050900009230093012301930023029369460448E6
:1050A000FBF78AFB08B1FFF71FFF05B05DF804FBB3
:1050B0009C490020002101400100000F00B585B08F
:1050C0001248134B036000234360836003618361D4
:1050D0000362C3620F4A8262C3600122C26103633A
:1050E0004261FBF77FFA08B1FFF7FEFE0B23009346
:1050F000012301930023029369460448FBF75CFBFC
:1051000008B1FFF7F1FE05B05DF804FB804A00200E
:10511000002201400100000F70B58AB0FBF790F942
:10512000FFF784FEFFF740FDFFF74AFEFFF7DEFEC4
:10513000FFF7F8FEFFF712FFFFF730FFFFF748FF1A
:10514000FFF760FFFFF78CFFFFF7B8FF0D4C05ADD1
:1051500026460FCE0FC533682B60002105A8FEF749
:1051600091FE094B18606D4614340FCC0FC52368AF
:105170002B6000216846FEF785FE044B1860FEF7A1
:105180007BFEFEE70CA80008F448002058490020E8
:10519000704700BF08B50320FBF724FD002211462D
:1051A0006FF00B00FBF73CFD002211466FF00A0088
:1051B000FBF736FD002211466FF00900FBF730FDCA
:1051C000002211466FF00400FBF72AFD0022114671
:1051D0006FF00300FBF724FD00220F216FF00100A8
:1051E000FBF71EFD00220F214FF0FF30FBF718FDEB
:1051F00008BD00BF00B589B00368264A934215D1A7
:1052000000210091244B5A6C42F480725A645B6C0A
:1052100003F480730093009B0123039303230493FF
:10522000059103A91D48FCF729F830E01C4A934278
:1052300015D100210191184B5A6C42F400725A6446
:105240005B6C03F400730193019B0223039303231C
:105250000493059103A91148FCF710F817E0114ACF
:10526000934214D1002102910B4B5A6C42F480629C
:105270005A645B6C03F480630293029B02230393E2
:1052800003230493059103A90748FBF7F7FF09B02F
:105290005DF804FB00200140003802400004024099
:1052A0000021014000220140000802400268114B29
:1052B0009A421DD100B587B00021009103F5EA3371
:1052C0001A6C42F000721A641B6C03F000730093B6
:1052D000009B03230193022202920391049309236A
:1052E000059301A90448FBF7C9FF07B05DF804FB6B
:1052F000704700BF00640040000C02400268194B78
:105300009A422ED110B586B04FF410730193122338
:1053100002930123039300240494042305930DEBCB
:1053200003011148FBF7AAFF0094104B1A6C42F4DA
:1053300000121A641B6C03F400130093009B2246B6
:1053400005211F20FBF76CFC1F20FBF7ABFC22465E
:1053500005212020FBF764FC2020FBF7A3FC06B00E
:1053600010BD704700540040000402400038024065
:105370000268104B9A421CD100B587B000230093FD
:105380000D4A516C41F480515164526C02F48052C8
:105390000092009AE0220192022202920393049367
:1053A0000523059301A90548FBF768FF07B05DF8E1
:1053B00004FB70470030014000380240000002400A
:1053C0002DE9F04188B003683A4A93423BD1044644
:1053D00000250195384B1A6C42F400321A641B6C9C
:1053E00003F400330193019B0C23039302230493E2
:1053F00001230593032306930723079303A92F484B
:10540000FBF73CFF2E482F4B03604FF000634360D7
:105410008560C5600561456185614FF48073C36136
:1054200005624562FBF7ECFC08B1FFF75DFD244B1C
:1054300063639C63002205212620FBF7F1FB2620F5
:10544000FBF730FC33E0204A934230D10024029431
:10545000194B1A6C42F480221A641B6C03F48023EB
:105460000293029B4FF4006303934FF00208CDF8C0
:10547000108001270597032606960725079503A99F
:105480001248FBF7FBFE4FF480730393CDF81080B6
:1054900005970696079503A90D48FBF7EFFE2246F0
:1054A00005212720FBF7BCFB2720FBF7FBFB08B0FF
:1054B000BDE8F08100440040003802400000024096
:1054C000F848002088600240004800400004024084
:1054D000000C024010B588B0002201461D20FBF7E9
:1054E0009FFB1D20FBF7DEFB00240194144B1A6C7C
:1054F00042F002021A641B6C03F002030193019B49
:1055000002A903A8FDF7CCFBFDF79AFB40000D4B69
:10551000A3FB00239B0C013B0B480C4A026040F2AA
:10552000E732C260436004618460FDF737FE18B95A
:105530000548FDF795FC00E0012008B010BD00BF54
:105540000038024083DE1B43A04B002000040040D3
:1055500008B5FEF7B9FC08BD08B50248FBF79EFD8B
:1055600008BD00BFF848002008B50248FDF7CEFC92
:1055700008BD00BFA04B002008B50248FCF734FE70
:1055800008BD00BFE449002008B50248FCF7DCFE76
:1055900008BD00BFE449002008B50248FEF774F9D1
:1055A00008BD00BF204B002008B50248FEF76CF98B
:1055B00008BD00BF5C4900200F49D1F8883043F492
:1055C0007003C1F888300D4B1A6842F001021A606E
:1055D000002098601A6822F0847222F480321A60E7
:1055E000074A5A601A6822F480221A60D8604FF085
:1055F00000638B60704700BF00ED00E000380240A0
:1056000010300024224B9B6803F00C03042B07D0BE
:10561000082B09D0002B2DD11E4A1F4B1A602CE0FD
:105620001E4A1D4B1A6028E0194B5A685B6803F04C
:105630003F0312F4800F09D0184AB2FBF3F2144B67
:105640005B68C3F3881303FB02F208E0114AB2FB64
:10565000F3F30F4A5168C1F3881101FB03F20C4BBD
:105660005B68C3F3014301335B00B2FBF3F30A4A07
:10567000136002E0074A084B1A60054B9B68C3F3AE
:105680000313074AD15C044A1368CB401360704788
:10569000003802400024F4000800002000127A00C4
:1056A0004CA80008014B1868704700BF3804002060
:1056B000034A044B1268506B002808BF1846704715
:1056C000380400203C04002008B5034B1868FFF79D
:1056D000EFFFD0F8EC0008BD380400202DE9F04FB2
:1056E00001F10B05162D83B0064640F29F8035F080
:1056F000070500F1BF80A94200F2BC8000F0A4FBC6
:10570000B5F5FC7FC0F09C826B0A00F0BA80042BD8
:1057100000F28381A80900F1390E4FEA4E033830B8
:10572000C44F07EB8303A3F108015C68A14207D1D2
:10573000ACE0002A80F2AC80E468A14200F0A680D0
:10574000636823F003035A1B0F2AF2DDB9493C6951
:1057500001F1080E744500F0B381636823F0030380
:105760005A1B0F2A00F39981002AC1F814E0C1F8EE
:1057700010E080F29E80B3F5007F80F06781DB0847
:1057800003F1010C01229B1002FA03F34A6851F85D
:105790003C80C4F8088001EBCC091A43A9F1080346
:1057A000E3604A6041F83C40C8F80C408310012493
:1057B0009C40944200F28A80144206D120F00300FB
:1057C0006400144200F10400FAD007EBC009CC4693
:1057D0008046DCF80C108C4507D173E1002A80F27A
:1057E0008181C9688C4500F06D814B6823F003030B
:1057F0005A1B0F2AF2DD0C46D1F80CC054F8088F62
:105800004B1945F001054D6042F00101C8F80CC08C
:105810003046CCF808807B613B61C3F80CE0C3F8EC
:1058200008E059609A5000F011FB1FE0102921D8C0
:1058300000F00AFB1025062302207E4F07EB8303AE
:10584000A3F108025C68944200F045816368E16856
:10585000A56823F00303234430465A68E96042F008
:1058600001028D605A6000F0F1FA0834204603B05E
:10587000BDE8F08F00240C232046336003B0BDE860
:10588000F08F80234FF0400E3F2049E770465DE7E0
:105890002344E1685A68A56842F00102E960304695
:1058A0008D605A6000F0D2FA0834204603B0BDE89B
:1058B000F08F234430465A6842F001025A6000F0EB
:1058C000C5FA0834204603B0BDE8F08FBC686368B1
:1058D00023F00308A84504D3C5EB08030F2B00F3FE
:1058E0008C80554BDFF860911A68D9F8003001338D
:1058F0002A4404EB080A00F0608102F580520F325E
:1059000022F47F6222F00F0211463046019200F02D
:105910009FFAB0F1FF3F8346019A00F0588182451B
:1059200000F2FC80454B1968DA451144196000F01B
:105930005381D9F80000DFF810E101301BBFCAEB3A
:105940000B0A5144CEF800B019601BF0070100F0BB
:105950001781C1F10800C1F58051834408315A44D0
:10596000C2F30B02C2EB010949463046019300F035
:105970006FFA431C019B00F03F81CBEB00024A44CD
:1059800042F001021968C7F808B04944BC42CBF89C
:1059900004201960DFF8A49016D0B8F10F0F40F280
:1059A000FD806268A8F10C0323F00703E01802F001
:1059B00001024FF0050E1A430F2B6260C0F804E09D
:1059C000C0F808E000F21C811D4BBC681A689142C7
:1059D00088BF19601B4B1A689142626888BF1960C2
:1059E00022F003029542A2EB050301D80F2B04DC41
:1059F000304600F02BFA002438E7621943F0010327
:105A000045F0010565603046BA60536000F01EFA4B
:105A10000834204603B0BDE8F08F142B71D9542B05
:105A200000F2A480280B00F16F0E4FEA4E036E3097
:105A300076E600BFA8050020C0480020C44800202A
:105A4000BC480020B8480020B40900205A0A042AA3
:105A50005ED9142A00F2B38002F15C0149005B3286
:105A600007EB810C57F82110DFF8DC81ACF1080C52
:105A70008C4500F088804A6822F00302934202D2EB
:105A800089688C45F7D1D1F80CC07A68C4F80CC08D
:105A9000A160CCF80840CC6088E6631942F00107A9
:105AA00045F00105656030464B610B61C3F80CE0C1
:105AB000C3F808E05F609A50083400F0C7F9D5E6F3
:105AC0004A6873E608F1010818F0030F0CF1080C9E
:105AD0007FF47FAE30E0DC68A34208BF02303FF4C1
:105AE00035AEB3E60B440C465A68C96854F8085FF3
:105AF00042F001025A603046E9608D6000F0A6F97C
